:020000040800F2
:10000000580800208D010008692100086D1A0008B9
:1000100000000000000000000000000000000000E0
:10002000000000000000000000000000B3210008F4
:100030000000000000000000B1210008B521000808
:100040009F010008000000009F0100089F010008B8
:100050009F0100089F0100089F0100089F01000800
:1000600000000000C90700089F0100089F01000868
:100070009F0100089F0100089F0100080000000088
:100080009F01000800000000000000009F01000820
:10009000000000009F0100089F0100089F01000868
:1000A000000000009F010008000000009F01000800
:1000B00000F002F800F03EF80CA030C80838241810
:1000C0002D18A246671EAB4654465D46AC4201D190
:1000D00000F030F87E460F3E0FCCB6460126334284
:1000E00000D0FB1AA246AB4633431847D026000087
:1000F000F0260000103A02D378C878C1FAD8520727
:1001000001D330C830C101D504680C6070470000CD
:100110000023002400250026103A01D378C1FBD823
:10012000520700D330C100D50B6070471FB51FBD0B
:1001300010B510BD00F08AFA1146FFF7F7FF02F084
:1001400029FA00F0A2FA03B4FFF7F2FF03BC00F0B3
:10015000A9FA000070B505460C46164602E00FCC21
:100160000FC5103E102EFAD2082E02D303CC03C5C1
:10017000083E042E07D301CC01C5361F03E02178C9
:100180002970641C6D1C761EF9D270BD074880472B
:1001900007480047FEE7FEE7FEE7FEE7FEE7FEE76B
:1001A00004480549054A064B704700002122000813
:1001B000B100000858020020580800205804002010
:1001C0005804002001E004C0091F0429FBD28B075A
:1001D00001D50280801CC90700D002707047002939
:1001E0000BD0C30702D00270401C491E022904D361
:1001F000830702D50280801C891EE3E70022EEE718
:100200000022DFE7002203098B422CD3030A8B4232
:1002100011D300239C464EE003460B433CD40022FE
:1002200043088B4231D303098B421CD3030A8B4210
:1002300001D394463FE0C3098B4201D3CB01C01ADE
:10024000524183098B4201D38B01C01A52414309A9
:100250008B4201D34B01C01A524103098B4201D397
:100260000B01C01A5241C3088B4201D3CB00C01A04
:10027000524183088B4201D38B00C01A524143087C
:100280008B4201D34B00C01A5241411A00D20146A1
:100290005241104670475DE0CA0F00D0494203103A
:1002A00000D34042534000229C4603098B422DD389
:1002B000030A8B4212D3FC22890112BA030A8B4231
:1002C0000CD3890192118B4208D3890192118B4280
:1002D00004D389013AD0921100E08909C3098B4205
:1002E00001D3CB01C01A524183098B4201D38B0148
:1002F000C01A524143098B4201D34B01C01A5241EB
:1003000003098B4201D30B01C01A5241C3088B422F
:1003100001D3CB00C01A524183088B4201D38B001A
:10032000C01A5241D9D243088B4201D34B00C01AA4
:100330005241411A00D20146634652415B101046B9
:1003400001D34042002B00D54942704763465B1001
:1003500000D3404201B50020C046C04602BD7047F0
:10036000704770470346CA02400D10B510430A1586
:1003700004D00124E4072043002A05DB0A4CA21A1A
:1003800004D4D040FF2A00DD002010BD4A00002B1D
:1003900001D0012000E00020101801225205D042B7
:1003A000F2D8C817C04310BD1E0400001F22030C62
:1003B00002D10F22000402D0030E03D004E000207B
:1003C000014670470002083A030F01D10001121FD5
:1003D000830F01D18000921E002801DB4000521ED5
:1003E000120551184205C012411810467047C10F3E
:1003F000C90700D04042012292071143D6E70121EC
:100400008907D3E7F0B58B4C0F09254689B0BD436A
:100410007BD01D092646AE43FAD00E465E402740EB
:10042000F60F3E43254071D024012142FBD0FF242A
:10043000AD19A4042D1B039501252D05DB02DB0A54
:10044000C9022B43C90A29431E010901040F130FD6
:10045000050121431701880B820391432D098C4626
:10046000A90B1E438A039543B30B9A0396433F0996
:10047000BA0B9403A74302962E467E430497B646D2
:100480004E19D7190C460196544305977E43371BE6
:100490007646BF1B3601B646BE0B36190096764629
:1004A000BC043719009C01D3641C00946400002F25
:1004B00001D001263443029E049F754366467E4365
:1004C0000496760034196E0034190094029C019E43
:1004D0001C196643751BAE46069465464519059C76
:1004E00005956C43594375460891691A0191049E1C
:1004F00001465143A41B0491611A009C0791E10637
:1005000005D061090122114302E072E06EE0610949
:10051000089D00272C0A2D066918049D7C412A0A93
:100520002D066918019D6241AC0DAD026D18544154
:10053000079A910D920255196141029A64465843F7
:100540005443069B059A5A43121A131B9A0E9B0199
:100550005B187A41010B0005C3185141220A20069D
:1005600044195A419A4200D2491C0120400281425A
:1005700003D315230226F64302E014230326F64391
:100580002020C51AA9401746AF40DA400A4320464A
:100590000399D8400914731819055118039A384360
:1005A000D2075140AC4009D00122944006D300222A
:1005B000401C5141002C01D1400840001E4A93428A
:1005C00012D3012203989206904207DB05204007D0
:1005D00009181A480143C012414004E003204007B3
:1005E0000818C10FC907002009B0F0BD0020F107AD
:1005F000FAE705180C464C4111486D42A04115D34D
:1006000094181A465A410E48644290410ED3012074
:100610004A004005824209D35A00824206D359401B
:10062000C90F084AC90700201143DDE70020064929
:10063000DAE700000000FF07FE070000FFFFFF7F72
:100640000000E0FF0000F07F0000F87F754600F03A
:1006500025F8AE46050069465346C008C0008546E9
:1006600018B020B5FFF79CFD60BC00274908B646CE
:100670000026C0C5C0C5C0C5C0C5C0C5C0C5C0C5B1
:10068000C0C5403D49008D46704710B50446C04680
:10069000C0462046FFF757FD10BD000000487047D8
:1006A000F401002001491820ABBEFEE7260002003D
:1006B000704710B50146406A426C50231A420AD175
:1006C000416C01225202114341640168CA6812055B
:1006D000920F05D020E0C06B026B0846904710BD1A
:1006E000026A002A18D10A68120715D58A685307CA
:1006F0000122002B09DB4B680C24A3434B60416CA7
:10070000130299431143416406E0416C20231943CD
:100710004164816C1143816400F066F910BD10B52D
:10072000406A416C402211434164816C04221143B0
:10073000816400F05BF910BD10B5406A00F055F916
:1007400010BD0000F8B504460020009020688168C4
:100750008907890F012905D10168C9072CD1C16812
:10076000090429D48168154A102611400125002961
:1007700015D1816829438160124811490068FFF74B
:1007800041FD00E0401E00900028FBD100F0EEFB90
:1007900007460CE000F0EAFBC01B022807D9606C9A
:1007A00030436064A06C2843A0640120F8BD206839
:1007B0000068C043C007EDD10020F8BD17000080DD
:1007C00040420F000C00002010B5024800F060FA13
:1007D00010BD0000B001002010B5044600680549B6
:1007E00040181421FFF70EFD800020640248E063EA
:1007F00010BD0000F8FFFDBF0000024030B5056CE1
:100800000124AC40C56B6C60046863604368102BC6
:10081000036803D099600068C26030BD9A600068C8
:10082000C16030BD7047F8B50546044640352878AC
:100830000026012808D001202870206881688907D7
:10084000890F012908D101E00220F8BD0168C9071C
:1008500038D1C168090435D4616CFF22013291435B
:10086000022211436164C1688907890F0091C16840
:1008700089088900C16020688168920711438160FE
:1008800000F074FB07460EE000F070FBC01B02286E
:1008900009D9606C0221884310210843606400205C
:1008A00028700120F8BD206880680028ECDB2068F3
:1008B000C168009A1143C160606C80088000401CD0
:1008C000606404E0606C202108436064012600201D
:1008D00028703046F8BD0000F8B5002504464034C5
:1008E00000952278012A39D00122227003689E687F
:1008F000760767D4384F4E68BE424DD09E6A0F7857
:10090000BA4016439E620123826B1B079A421FD096
:10091000012A1DD0022A1BD0032A19D0042A17D07D
:10092000052A15D0062A13D0072A11D002688B6831
:1009300056697607760FB3420AD05369DB08DB00AD
:100940005361006842690B7A5B075B0F1A4342618F
:100950000A68102A04D0112A02D038E00220F8BD1B
:100960001E488368102A07D0012292051343836032
:100970000868102803D02AE00122D205F6E71948BA
:1009800017490068FFF73EFC0A21484300E0401E7B
:1009900000900028FBD11AE0986A0E78B24090438C
:1009A00098620968102901D0112910D10B4882687A
:1009B000102904D0012189058A43826007E00121C2
:1009C000C905F9E7416C202211434164012500204B
:1009D00020702846F8BD00000110000000270140EB
:1009E00040420F000C000020704770477047000025
:1009F000F8B500250446002803D0606C002802D01A
:100A000008E00120F8BD0020A064402108552046E0
:100A100000F0A8F8606C1022C006002870DB206887
:100A2000816849076CD4616C13019943022319430F
:100A3000616481688907890F012905D10168C907A7
:100A40000FD1C16809040CD4C16818239943A36865
:100A50001943C160206801696368890089081943E6
:100A600001612068C1683D4B1940C160A069E1691E
:100A70008003C9030843216A4B031843636B012BAE
:100A800002D001231B0300E000231843E36818434E
:100A90002369022B09D000231843236B666A5B008D
:100AA00018430123012E02D00AE00423F4E70029B1
:100AB00027D0616C202631436164A16C1943A16485
:100AC000A16A0E46FF3EC23E02D0E66A31430843A9
:100AD0002168CE680643CE600126A16B3607B1427D
:100AE00013D0012911D002290FD003290DD00429D8
:100AF0000BD0052909D0062907D0072905D010E019
:100B000028E0012109040843DAE721684E69F60864
:100B1000F6004E6121684E69278F7F077F0F3E43A5
:100B20004E612168C9680E4E3140814207D10020D4
:100B3000A064606C80088000401C606408E0606C09
:100B40000221884310436064A06C1843A06401250F
:100B50002846F8BD606C10436064F8E71902FEFF98
:100B6000E7FF3F83F0B587B0054614216846FFF7DD
:100B700047FB1B49286888422FD11A4988694E15BE
:100B8000304388618869304005904A6930020243E9
:100B90004A61496900270140059106200090032021
:100BA0000190092069460297C00600F02FF90E480F
:100BB0000E4C81C427608020A66060600001E06068
:100BC0002020676120610948083C00F0AFF8002848
:100BD00001D0FFF727FEEC63656207B0F0BD0000AF
:100BE000002401400010024008000240B001002033
:100BF000F7B5044600680025806840073DD42646C6
:100C00004036307801280AD001273770E069012882
:100C100007D02046FFF796FD050002D02EE0022007
:100C2000FEBD606C16490840FF2101310843606435
:100C30000020A0643070E16B12488862E16B1248BA
:100C4000C862E16B1148086321681C2008602068B5
:100C500041681022114341602068C1683943C16076
:100C60002168E06B4031029B019A00F08BF820680C
:100C7000816804221143816000E002252846FEBD00
:100C8000FEF1FFFFB3060008390700081F07000840
:100C9000F0B4C16B0D6801680C680422066C134641
:100CA000B3402B420DD063070BD50B689B0602D4D3
:100CB0000B6893430B60016C8A40C16B4A60C16A48
:100CC00019E00227B74002462F4001232032002FAF
:100CD00015D0A70713D50C68A40604D40C680A2500
:100CE000AC430C605370036C02219940C36B596094
:100CF00000211170816A002916D0F0BC084708272E
:100D0000B7402F4210D024070ED50C680E25AC43F7
:100D10000C60046C1946A140C46B6160836353701E
:100D200000211170016BE6E7F0BC704770B504005C
:100D300024D00220214620310D46487022681168D7
:100D40000F48A3680140606826691843E36833438D
:100D5000184363691843A3691843E36918430843B8
:100D600010602046FFF738FD0020A062E06220639B
:100D70006063A06301216970287070BD012070BD9F
:100D80000FC0FFFFF8B504468C46203001780025DF
:100D9000012909D00126067041780027012905D0D4
:100DA000077002252846F8BD0220F8BD02214170D7
:100DB000A763206801684908490001606146204630
:100DC000FFF71CFDE06A00282068016802D00E22AF
:100DD000114306E00A2211430160206801680422E1
:100DE000914301602068016831430160DAE731B561
:100DF00000F0BCF8009C0546601C00D0641C00F0AC
:100E0000B5F8401BA042FAD338BD0000F8B5002366
:100E10008DE001249C40A44622407DD04C68022CE9
:100E200001D0122C0CD1DC08A40027183C6A5D0705
:100E3000ED0E0F26AE40B4430E69AE4026433E622F
:100E400005685E000324B4400F79A543BF07BF0FB8
:100E5000B7402F4307604D68012D05D0022D03D008
:100E6000112D01D0122D0ED18568CF68A543B74052
:100E70002F43876047686546AF430D79ED06ED0F58
:100E80009D403D434560C568A5438C68B4402C43F4
:100E9000C4604C68E40049D5284CA5690126354357
:100EA000A561A4699D0834400094254CAD002F191C
:100EB000BC689D072E0F0F25B540AC430925ED06F4
:100EC000A84201D100250FE01E4DA84201D1012505
:100ED0000AE01D4DA84201D1022505E01B4DA842A4
:100EE00001D1032500E00525B5402543BD60184C20
:100EF00025684E689543F60300D51543256065685F
:100F00004E689543B60300D515436560A5684E68E5
:100F10009543F60202D500E008E01543A560E568B8
:100F20004E689543B60200D51543E5605B1C0A6820
:100F30001446DC4000D06CE7F8BD00000010024011
:100F4000000001400004004800080048000C004870
:100F5000000401400069084000D001207047002AC9
:100F600001D08161704781627047000001480068CC
:100F7000704700000800002002480168491C016019
:100F8000704700000800002010B5064801681022D4
:100F900011430160002000F007F800F017F800206E
:100FA00010BD00000020024010B5044600F03AF9E0
:100FB0007D21C900FFF726F900F030FB0022214611
:100FC000501E00F021F8002010BD000008B50848B0
:100FD0008169012211438161816911400091C269D7
:100FE00001040A43C261C0690840009008BD0000C6
:100FF00000100240C106C90E012088400149086066
:101000007047000000E100E010B501F0AFF810BD3E
:10101000F8B505460068354CC00352D5E069002696
:10102000C00007D4E16920040143E161E1690140A6
:10103000012600912E480168C90510D40168821567
:1010400011430160FFF792FF074604E0FFF78EFFB0
:10105000C01B642824D826480068C005F6D5206A3D
:1010600003273F02384020D06968394081421CD0B4
:10107000206A226AB843012109040A432262226AD3
:101080008A4322622062C0070FD0FFF76FFF0090F3
:1010900008E0FFF76BFF0099411A1648814201D919
:1010A0000320F8BD206A8007F3D5206A6968B84339
:1010B00008432062002E04D0E1690120000781432B
:1010C000E1612878C00705D0206BA96880088000FE
:1010D000084320632878800605D5206B10218843BB
:1010E000E968084320630020F8BD000000100240BA
:1010F0000070004088130000F8B5054644480E46CD
:101100000068C007C00FB0420AD2414801684908D0
:101110004900314301600068C007C00FB0425CD194
:1011200028783C4C800705D56068F0218843A96881
:10113000084360602878C0073FD06868012813D052
:101140002168022813D08907002946DA61688908D6
:10115000890001436160FFF709FF696807460129BB
:101160000DD0022917D024E021688903ECE789011A
:10117000EAE7FFF7FBFEC11B2748814217D86068EA
:101180000007800F0128F4D117E0FFF7EFFEC11B25
:10119000214881420BD860680007800F0228F4D1F3
:1011A0000BE0FFF7E3FEC11B1B48814201D903207E
:1011B000F8BD60680007800FF3D115480168C907C2
:1011C000C90FB1420BD90168490849003143016098
:1011D0000068C007C00FB04201D00120F8BD2878D8
:1011E000400706D56068072109028843E96808437B
:1011F000606000F02DF86168084A0906090F515C2B
:10120000C840074908600020FFF7CEFE0020F8BD67
:10121000002002400010024088130000A4270008AC
:101220000C00002001480068704700000C000020FE
:101230000448054900684968044A4905490F515C5A
:10124000C84070470C00002000100240B42700087E
:1012500010B512A30FCB88B06C460FC413A30FCBED
:101260000FC416494A680C20134603401448042B47
:101270000FD0082B0DD193021B0F6C46E45CC96A9A
:1012800004AB0907090F595CD20304D5FEF7BAFF76
:10129000604308B010BD0B486043FAE70203040541
:1012A000060708090A0B0C0D0E0F101001020304AB
:1012B00005060708090A0B0C0D0E0F10001002405E
:1012C00000127A0000093D00FEB504460078D04DBA
:1012D000C00747D068680007800F012807D06868FA
:1012E0000007800F022809D16868C00306D5286866
:1012F000800337D5606800287ED033E00120626823
:101300000004012A11D08100002A01D0052A10D042
:101310002A6882432A602868884328606068002819
:1013200014D0FFF723FE06460CE02968014329602C
:10133000F4E72A680A432A60F7E7FFF717FE801BE5
:1013400064286FD828688003F7D50BE0FFF70EFEFE
:10135000064604E0FFF70AFE801B6428F1D82868DF
:101360008003F7D420780126800700283BDA6868DC
:101370000007800F07D068680007800F022809D196
:101380006868C00306D42868800715D5E06801287E
:1013900032D111E0E0680028286815D03043286079
:1013A000FFF7E4FD074604E0FFF7E0FDC01B02285D
:1013B000C7D828688007F7D52868F82188432169AD
:1013C000C900084328600EE0400840002860FFF78D
:1013D000CDFD074604E0FFF7C9FDC01B0228B0D8C9
:1013E00028688007F7D42078000724D5E069002812
:1013F000686A10D0304300E008E16862FFF7B6FD8C
:10140000074604E0FFF7B2FDC01B022899D8686ABE
:101410008007F7D50FE0400840006862FFF7A6FD9F
:10142000074605E09DE0FFF7A1FDC01B022888D814
:10143000686A8007F7D4207804274007002860DA1C
:1014400000200190E869C00008D4E969B8060143AA
:10145000E961E96901400120009101906D4801684E
:10146000C90511D40168821511430160FFF77EFDA3
:10147000009005E0FFF77AFD0099401A642870D8C3
:1014800064480068C005F5D5A06801280AD0002886
:1014900001D0052810D0286A400840002862286A38
:1014A000B84301E0286A30432862A068002812D0BF
:1014B000FFF75CFD00900AE0286A38432862F1E7F4
:1014C000FFF754FD0099411A5348814249D8286AD0
:1014D0008007F5D50DE0FFF749FD009006E0FFF726
:1014E00045FD0099411A4C4881423AD8286A800744
:1014F000F5D40198002804D0E96901200007814350
:10150000E9612078C00635D5606901280CD0401DFE
:10151000686B23D038436863686B40084000686399
:10152000FFF724FD064622E0686B38436863686B6A
:1015300030436863FFF71AFD064604E0FFF716FD27
:10154000801B02285BD8686B8007F7D5686BF82191
:101550008843A169C900084368630BE0B843686326
:10156000F4E74CE0FFF702FD801B022847D8686BC8
:101570008007F7D4206A002846D069680907890FD8
:10158000022943D0012636060228286805D0B04338
:101590002860FFF7EBFC044633E0B0432860FFF718
:1015A000E5FC074604E0FFF7E1FCC01B022826D853
:1015B00028688001F7D4E86AE16A0009000108435D
:1015C000E862616AA06A084369683D221204914397
:1015D00008436860286830432860FFF7C7FC04466A
:1015E00004E0FFF7C3FC001B022808D8286880012C
:1015F000F7D509E0FFF7BAFC001B022801D9032048
:10160000FEBD28688001F5D40020FEBD0120FEBD8E
:10161000001002400070004088130000094910B516
:10162000401E884201D9012010BD074C6061032192
:10163000081F00F09BFD0020A06107202061002012
:1016400010BD0000FFFFFF0000E000E070B50346A2
:1016500020331A7F012A27D001241C7702225A77CF
:101660000326CA683602B2438E6800253243A602BA
:10167000B2434E6800683243E602B2430E6832431A
:101680002603B2430E6932436603B2434E69896949
:101690003243A603B2430A43E603B2430A43426419
:1016A0005C771D77002070BD022070BD70B50246CA
:1016B0002032137F012B1BD0012313770224547790
:1016C000046865687026B5436560046865680E68DF
:1016D000354365600468A5688026B543A560006849
:1016E000846849680C43846053770020107770BD8C
:1016F000022070BD70B5040005D025462035687FF6
:10170000002802D006E0012070BD00202877204686
:1017100000F00AF802206877211D206800F0AEFD75
:1017200001206877002070BD08B50068054988422F
:1017300007D10548C26981150A43C261C0690840E2
:10174000009008BD00200040001002400222014627
:1017500020314A77026813680120034313604877F9
:101760000020704770B586B0044614216846FEF725
:1017700047FD25681F4E0124092000211E4A6404EC
:101780000223C006B5420DD1556925435561526902
:1017900002912240059207221202019304930092C3
:1017A00003910FE0154EB54211D15569254355619E
:1017B00052690291224005928022039101210193F6
:1017C000009204916946FFF721FB06B070BD0C48FA
:1017D0008542FAD15469400104435461526900932F
:1017E00002400291039104910193059269460548D4
:1017F000E9E70000002C0140001002400004004016
:101800000020004000040048F8B506460446203693
:10181000307F0D4601280DD00120307702207077EF
:101820000427002A08D0042A16D0082A2AD00C2A15
:101830004DD137E00220F8BD206800F067FD206838
:10184000816908221143816120688169B9438161FE
:10185000206881692A6912E0206800F093FD206801
:1018600082690121C9020A438261206881690122DB
:10187000920291438161206881692A6912021143B1
:10188000816124E0206800F0B7FD2068C26908216A
:101890000A43C2612068C169B943C1612068C16956
:1018A0002A6912E0206800F0E3FD2068C169012286
:1018B000D2021143C1612068C269012189028A43B1
:1018C000C2612068C1692A6912021143C161012005
:1018D000707700203077F8BD70B5040005D025463C
:1018E0002035687F002802D006E0012070BD00206E
:1018F0002877204600F00AF802206877211D20682A
:1019000000F0BCFC01206877002070BD08B50B4AD0
:1019100001680B48914205D18269C1140A43826172
:10192000806907E0074A914206D1C26902210A4351
:10193000C261C0690840009008BD0000002C014051
:10194000001002400004004010B504460068012267
:1019500000F0D0FC0A482168814205D00948814244
:1019600002D00948814204D1486C0122D2031043BD
:10197000486420680168012211430160002010BD05
:10198000002C0140004401400048014070B50400B3
:1019900006D02546403568780026002802D005E0AC
:1019A000012070BD2E70204600F01CF802206870E7
:1019B00020680168490849000160204600F088FD60
:1019C0000128EED020688168082291438160206858
:1019D000026801210A4302603046666469702E7015
:1019E00070BD000070B586B0044614216846FEF74D
:1019F00007FC1B49206888422FD11A4882690121BF
:101A000089030A43826182690A4005924269C900DA
:101A10000A43426142690A400592426949000A4309
:101A20004261406902250840059010200090012085
:101A30000490002403260920039601950294694628
:101A4000C006FFF7E3F9C0200090029469460396B0
:101A5000019504940448FFF7D9F906B070BD000061
:101A6000003801400010024000040048FEE700007A
:101A70000FB410B59CB02E99204C0868E0624968FC
:101A80002163626B616A8B18834202D382188A4297
:101A900012D260623D221EA90CA8FEF75BFB28A8AB
:101AA000417D18A84173302210A96846FEF752FB09
:101AB0000CA80FC800F0C8F9A26A616B206B53181C
:101AC000834202D34118914212D2A0623D221EA944
:101AD0000CA8FEF73FFB28A8417D18A841733022CF
:101AE00010A96846FEF736FB0CA80FC800F0E4F911
:101AF0001CB010BC08BC04B0184700001000002047
:101B00000FB410B5084C6420A16841432068FEF76B
:101B100079FB401E029980B28862029960688863EE
:101B200010BC08BC04B01847100000200FB4F8B572
:101B300027498C260D46403D68684A7A04460F7A4C
:101B40000A38002A0FD0012A2FD0022A29D1142CBA
:101B500038D81921890148430A21FEF753FB4B214C
:101B6000090140180CE0142C08D8FF21F531484336
:101B70000A21FEF747FBE1218900F2E7AF20C00010
:101B8000042F22D02146FEF73DFB301AFEF737FC2A
:101B9000104A114BFEF736FCFEF7E4FB6864069929
:101BA0004863F8BC08BC04B01847142C08D84B2173
:101BB000090148430A21FEF725FB7D21C900D0E732
:101BC0000648DDE7AF200001DAE76421DBE700002B
:101BD00050000020A4703D0AD7A3E83F98080000F9
:101BE0000FB400993B20886200996420886304B098
:101BF000704700000548016CC06B081A0449884210
:101C000001D901207047002070470000100000201B
:101C1000DC0500000F480E490160282242610A21BC
:101C200081611422C2601E2242607822C261412278
:101C30000262502202615A22826041630146002200
:101C400040314A7201220A720349816370470000E1
:101C5000006CDC0210000020FF03000010B5FFF74D
:101C600085F90149086410BD1000002010B5FFF788
:101C70007DF90149C86310BD100000200648417A73
:101C8000002903D0012903D0002102E0012100E056
:101C90000221417270470000500000200FB470B55F
:101CA0009CB0FFF7A7FF014600242148214D0029E1
:101CB0000AD00521297200220821FFF750F9209847
:101CC0004463209884631FE0297A3226032922D0B6
:101CD00000220821FFF743F9032028723D2230A992
:101CE0000CA8FEF737FA38A8417F18A841733022B4
:101CF00010A96846FEF72EFA0CA80FC8FFF700FFE0
:101D000020984463209886632098C4631CB070BCFC
:101D100008BC04B0184700220821FFF720F904206E
:101D2000287220984463209884632098C663EDE766
:101D300000040048500000200FB470B5404C9EB025
:101D4000207A404E429D030000F016FC0705095220
:101D5000142852057800FFF75DFF012004E0FF2002
:101D6000F530FFF744F8022020721EB070BC08BCAA
:101D700004B018473D2222A90DA8FEF7EBF930A8C0
:101D8000417918A84174302211A968460C95FEF7D4
:101D9000E1F90DAC0FCCFFF76BFE11E03D2222A95B
:101DA0000CA8FEF7D7F930A8417918A84173302262
:101DB00010A96846FEF7CEF90CAC0FCCFFF710FF68
:101DC0003D2232A90CA8FEF7C5F940A8417918A810
:101DD0004173302210A96846FEF7BCF90CAC0FCC59
:101DE000FFF7A4FE012208213046FFF7B8F8BCE750
:101DF0003D2222A90DA8FEF7ADF930A8417918A817
:101E00004174302211A968460C95FEF7A3F90DAC78
:101E10000FCCFFF72DFE3D2232A90CA8FEF79AF950
:101E200040A8417918A84173302210A96846FEF7EE
:101E300091F90CAC0FCCFFF779FE96E7062093E7FB
:101E400050000020000400480FB470B5184C142155
:101E50002246E06A9569E12807D8491B89B24843C0
:101E6000E121FEF7CFF940190AE0FF227B329042D0
:101E700009D31421801A48430E49FEF7C3F91430E0
:101E80000146E06000E0E1606069814200D3E0600B
:101E9000E168A94208D3814206D86068884203D02D
:101EA00004998863E068606070BC08BC04B018479F
:101EB00010000020850200000FB470B51C4C5021AA
:101EC0002246206B156AE12807D8491B89B248438E
:101ED000E121FEF797F940190AE0FF227B32904298
:101EE00008D32821801A48431249FEF78BF9503055
:101EF000206101E008462161E169884200D3216147
:101F00002069A8420FD388420DD8A16881420AD027
:101F1000642041432068FEF775F9401E049980B2A1
:101F200088622069A06070BC08BC04B0184700003B
:101F300010000020850200003EB5002117480091E6
:101F40000191154A02910260416001240822046156
:101F50008260C1608161C1610422046242614162A8
:101F6000FF220463C23244638262C162FEF740FD15
:101F70002003019007200290009469460748FEF76D
:101F8000ABFC0220009069460448FEF7A5FC03481C
:101F9000FEF749FC3EBD0000002401405C0000202B
:101FA000F0B587B014216846FEF72AF9194842694E
:101FB000012149040A43426142690A40059242698B
:101FC00049000A4342614069002208400590082107
:101FD0001148FEF7C4FF012509270024FF060095DC
:101FE0006946384602950194FEF710FF0220082644
:101FF00002906946009601943846FEF707FF029466
:1020000069460548009601950394FEF7FFFE07B068
:10201000F0BD0000001002400004004810B588B078
:102020001C216846FEF7ECF810480F4901600024B7
:10203000772184604160046164218461C160FFF79D
:1020400059FB0A48FFF748FC602000900194029475
:102050000022694604940548FFF7D6FB0348FFF7C2
:1020600081FB08B010BD00000020004028010020C6
:1020700010B590B000240E941C2168460F94FEF712
:10208000BFF81C2107A8FEF7BBF81F481D490160D7
:102090007721846041600461446164218461C1608E
:1020A000FFF71AFC0E940EA917480F94FFF7FEFADB
:1020B00060200594019400900294039404940022FB
:1020C000694606941048FFF79FFB042269460E48B4
:1020D000FFF79AFB082269460B48FFF795FB0120A2
:1020E0000794400308940C9009940A940B9407A950
:1020F0000D940548FFF7AAFA0348FFF733FB10B029
:1021000010BD0000002C0140A800002010B58AB0CE
:10211000002407941C2168460894FEF771F81148C2
:102120000F4901607721846041600461642184610A
:10213000C160FFF7D1FB079407A90A480894FFF78D
:10214000B5FA602000900194029404226946049438
:102150000448FFF759FB0348FFF704FB0AB010BD22
:1021600000040040E8000020704700008307FF22C1
:10217000DB0E9A408907090E994000280BDA000708
:10218000000F0838830808489B001818C369934358
:102190000B43C3617047830804489B001B181868F1
:1021A000904308431860704700ED00E000E400E051
:1021B0007047704710B5FEF7DFFE10BD70B594B0E4
:1021C00030216846FEF71CF8002401250F941220E8
:1021D0000595009010200E9410941394049006908E
:1021E0000D9405201294C0040C94039502260A90C5
:1021F0001194089609940B946846FFF765F8072038
:102200000C900E9401210D960F940CA8FEF774FF0C
:1022100010A810951294FEF7FBFE14B070BD0000DC
:10222000134801680122114301604168114A1140BD
:1022300041600168104A1140016001680122920466
:102240009143016041683F22120491434160C16A99
:1022500009090901C162016BFF2214329143016334
:10226000416B4908490041630021816070470000CB
:10227000001002400CB8FF08FFFFF6FE70B50268C0
:10228000174B184E984201D0B04203D17024A2439C
:102290004C682243144C154D984208D0B04206D0E9
:1022A000134EB04203D0A04201D0A84204D103266D
:1022B0003602B243CE6832438026B2434E6932437F
:1022C00002608A68C2620A688262984203D0A042B1
:1022D00001D0A84201D1096901630121416170BDAA
:1022E000002C01400004004000440140004801402F
:1022F0000020004010B50123046A8B409C43046217
:10230000036A8A401343036210BD0000F0B5026AFD
:10231000520852000262056A436882697024A2432F
:1023200092080C6892001443022295438A68134E67
:102330002A43114DA84204D0B04202D0104FB842F7
:1023400006D10827BA43CF681743042297433A4679
:10235000A84204D0B04202D0094DA84206D10325BC
:102360002D02AB434D691D438B692B434360846150
:10237000496841630262F0BD002C01400044014005
:102380000048014070B5026A10239A430262046A51
:102390004368826973252D02AA430D682D021543F7
:1023A000202294438A6812012243104CA04208D193
:1023B0001446CA688026B443120122434024A24333
:1023C00005E00B4CA04202D00A4CA04208D10324E5
:1023D000A402A3434C69A4001C438B699B002343C4
:1023E0004360856149688163026270BD002C0140D1
:1023F000004401400048014070B5026AFF230133E8
:102400009A430262046A4368C2697025AA4392082B
:102410000D68920015430122520294438A68120209
:102420002243104CA04207D1C414A243CC6824021A
:1024300022430615B24305E00B4CA04202D00B4CE0
:10244000A04208D103242403A3434C6924011C4364
:102450008B691B0123434360C5614968C163026204
:1024600070BD0000002C01400044014000480140C4
:1024700030B5026A01231B039A430262056A42686F
:10248000C36973242402A3430C6824021C43012360
:102490005B039D438B681B032B430A4DA84205D069
:1024A000094DA84202D0094DA84205D10125AD032E
:1024B000AA434D69AD012A434260C4614968016481
:1024C000036230BD002C014000440140004801403F
:1024D00070B504462269A168012311436269DB03D8
:1024E0001A430025236811431A6828461F4E3240BC
:1024F0000A431A60E369A16901221943D202114318
:10250000E368226A1A4323680A4359683F26360261
:10251000B143114359601649096B8907890F0FD0E0
:10252000012914D0022918D003290CD00125010952
:1025300009010007400F08432168C860284670BDA4
:10254000FEF776FE05E061680A4A480809E0FEF7F2
:102550007FFE616840004A0803E061680122480884
:1025600012048018FDF74EFE80B2E0E7F369FFFF2A
:10257000001002400024F40030B47446641E257834
:10258000641CAB4200D21D46635D5B00E31830BCA7
:1025900018470000BEB0FEF7F7FCFFF70FFEFFF78D
:1025A000FFFC7B48416901221143416140691040B1
:1025B0000022009011460920FEF726FD0920FEF7B3
:1025C00019FDFFF7B9FCFFF753FDFFF79FFDFFF77C
:1025D00025FD71486F490160002484604B21C4606F
:1025E0004902046141608461C4610C21046241615B
:1025F000FFF7CCF9FFF70EFB674804218038FFF79F
:10260000A3F9654800214038FFF79EF96248C038B9
:10261000FFF79CF860480021C038FFF795F95E4845
:102620000421C038FFF790F95B480821C038FFF754
:102630008BF95948803800688463574840380068EF
:1026400044635548C03801684C6301688C63006876
:10265000C463022251495248FEF7CAFA4E4F21A8DC
:10266000203F3C46403C2646403E0925ED063D9035
:102670001420FEF7BCFB48493D2240392DA8FDF748
:1026800069FD797F38A8417443493D2280391DA8EE
:10269000FDF760FD617F28A8417440481C904022EE
:1026A0002DA90CA8FDF756FD302268463D99FDF78F
:1026B00051FD1DA80FC8FFF73FFB01212846FEF77B
:1026C00049FC002854D1FFF7D1FA20A83C9025E01E
:1026D000FFF7C4FAFFF78EFA00281FD02E493D22DB
:1026E00080392CA8FDF736FD617F38A841732C494D
:1026F0003D224C311CA8FDF72DFD717F28A84173A8
:1027000040222CA90CA8FDF725FD302268463C99F3
:10271000FDF720FD1CA80FC8FFF7C0FA01212846CD
:10272000FEF718FC0028D3D0FFF764FA00281FD169
:1027300019493D2280392CA8FDF70CFD617F38A88E
:10274000417317493D224C311CA8FDF703FD717FF1
:1027500028A8417340222CA90CA8FDF7FBFC3022CD
:1027600020A96846FDF7F6FC1CA80FC8FFF796FAEB
:1027700008212846FEF7EEFB002800D178E7082163
:102780002846FEF7E7FB0028F9D1FFF777FA6FE755
:1027900000100240003801406801002000000020C5
:1027A0005C000020000000000000000001020304A3
:1027B000060708090000000001020304DC270008E6
:1027C0000000002010000000F4000008EC270008C2
:1027D0001000002048080000100100080000000060
:0C27E000000000000000000000127A0061
:04000005080000B13E
:00000001FF
