:020000040800F2
:10000000E8050020C5000008A91900087D140008B3
:1000100000000000000000000000000000000000E0
:10002000000000000000000000000000F3190008BC
:100030000000000000000000F1190008F519000898
:10004000D700000800000000D7000008D700000813
:10005000D7000008D7000008D7000008D700000824
:10006000000000008D020008D7000008D70000083B
:10007000D7000008D7000008D700000800000000E3
:10008000D70000080000000000000000D7000008B2
:1000900000000000D7000008D7000008D7000008C3
:1000A00000000000D700000800000000D700000892
:1000B0000348854600F04EF800480047E51D00085B
:1000C000E80500200448804704480047FEE7FEE7B3
:1000D000FEE7FEE7FEE7FEE7551A0008B10000085C
:1000E00030B50B46014600202022012409E00D46D0
:1000F000D5409D4205D31D469540491B2546954058
:1001000040191546521E002DF1DC30BD03460B434D
:100110009B0703D009E008C9121F08C0042AFAD2BD
:1001200003E00B780370401C491C521EF9D2704743
:10013000D2B201E00270401C491EFBD2704700227F
:10014000F6E710B513460A4604461946FFF7F0FFD6
:10015000204610BD064C0125064E05E0E36807CC9D
:100160002B430C3C98471034B442F7D3FFF7A4FF5D
:100170006C1F00088C1F000810B50146406A426CD5
:1001800050231A420AD1416C0122520211434164A8
:100190000168CA681205920F05D020E0C06B026B9F
:1001A0000846904710BD026A002A18D10A68120753
:1001B00015D58A6853070122002B09DB4B680C24F4
:1001C000A3434B60416C130299431143416406E021
:1001D000416C202319434164816C1143816400F018
:1001E0000DF910BD10B5406A416C402211434164C5
:1001F000816C04221143816400F002F910BD10B536
:10020000406A00F0FCF810BDF8B5044600200090EC
:10021000206881688907890F012905D10168C9070C
:100220002CD1C168090429D48168154A10261140CF
:100230000125002915D1816829438160124811499F
:100240000068FFF74DFF00E0401E00900028FBD142
:1002500000F094FB07460CE000F090FBC01B022866
:1002600007D9606C30436064A06C2843A06401200F
:10027000F8BD20680068C043C007EDD10020F8BD7C
:100280001700008040420F000C00002010B502480B
:1002900000F006FA10BD00006401002010B504460D
:1002A0000068054940181421FFF71AFF80002064F8
:1002B0000248E06310BD0000F8FFFDBF00000240EF
:1002C00030B5056C0124AC40C56B6C60046863609C
:1002D0004368102B036803D099600068C26030BD8A
:1002E0009A600068C16030BD70470000F8B5002515
:1002F0000446403400952278012A39D00122227028
:1003000003689E68760767D4384F4E68BE424DD06A
:100310009E6A0F78BA4016439E620123826B1B07C8
:100320009A421FD0012A1DD0022A1BD0032A19D0BD
:10033000042A17D0052A15D0062A13D0072A11D06F
:1003400002688B6856697607760FB3420AD0536904
:10035000DB08DB005361006842690B7A5B075B0FC7
:100360001A4342610A68102A04D0112A02D038E0E8
:100370000220F8BD1E488368102A07D0012292058A
:10038000134383600868102803D02AE00122D205B5
:10039000F6E7194817490068FFF7A2FE0A2148430B
:1003A00000E0401E00900028FBD11AE0986A0E7809
:1003B000B240904398620968102901D0112910D1E8
:1003C0000B488268102904D0012189058A43826084
:1003D00007E00121C905F9E7416C2022114341647E
:1003E0000125002020702846F8BD00000110000003
:1003F0000027014040420F000C000020704770476A
:1004000070470000F8B500250446002803D0606C52
:10041000002802D008E00120F8BD0020A06440219F
:100420000855204600F0A8F8606C1022C00600288D
:1004300070DB2068816849076CD4616C13019943B3
:1004400002231943616481688907890F012905D155
:100450000168C9070FD1C16809040CD4C168182309
:100460009943A3681943C1602068016963688900E2
:100470008908194301612068C1683D4B1940C1607A
:10048000A069E1698003C9030843216A4B0318434B
:10049000636B012B02D001231B0300E000231843F0
:1004A000E36818432369022B09D000231843236B08
:1004B000666A5B0018430123012E02D00AE0042380
:1004C000F4E7002927D0616C202631436164A16CD8
:1004D0001943A164A16A0E46FF3EC23E02D0E66AFD
:1004E000314308432168CE680643CE600126A16BE4
:1004F0003607B14213D0012911D002290FD00329A8
:100500000DD004290BD0052909D0062907D00729C9
:1005100005D010E028E0012109040843DAE721684A
:100520004E69F608F6004E6121684E69278F7F07F5
:100530007F0F3E434E612168C9680E4E31408142B3
:1005400007D10020A064606C80088000401C6064BB
:1005500008E0606C0221884310436064A06C18437B
:10056000A06401252846F8BD606C10436064F8E77C
:100570001902FEFFE7FF3F83F0B587B0054614215F
:100580006846FFF7DCFD1A49286888422ED11949D0
:1005900088694E15304388618869304005904A6902
:1005A000300202434A614969002701400591062053
:1005B000009003200190092069460297C00600F0D0
:1005C0002DF90D480D4C81C427608020A660606025
:1005D000276100016761E0600848083C00F0AEF860
:1005E000002801D0FFF780FEEC63656207B0F0BD24
:1005F0000024014000100240080002406401002075
:10060000F7B5044600680025806840073DD42646BB
:100610004036307801280AD001273770E069012878
:1006200007D02046FFF7F0FD050002D02EE00220A3
:10063000FEBD606C16490840FF210131084360642B
:100640000020A0643070E16B12488862E16B1248B0
:10065000C862E16B1148086321681C2008602068AB
:1006600041681022114341602068C1683943C1606C
:100670002168E06B4031029B019A00F08BF8206802
:10068000816804221143816000E002252846FEBDF6
:10069000FEF1FFFF79010008FF010008E5010008F5
:1006A000F0B4C16B0D6801680C680422066C134637
:1006B000B3402B420DD063070BD50B689B0602D4C9
:1006C0000B6893430B60016C8A40C16B4A60C16A3E
:1006D00019E00227B74002462F4001232032002FA5
:1006E00015D0A70713D50C68A40604D40C680A25F6
:1006F000AC430C605370036C02219940C36B59608A
:1007000000211170816A002916D0F0BC0847082723
:10071000B7402F4210D024070ED50C680E25AC43ED
:100720000C60046C1946A140C46B61608363537014
:1007300000211170016BE6E7F0BC704770B5040052
:1007400024D00220214620310D46487022681168CD
:100750000F48A3680140606826691843E368334383
:10076000184363691843A3691843E36918430843AE
:1007700010602046FFF792FD0020A062E062206337
:100780006063A06301216970287070BD012070BD95
:100790000FC0FFFFF8B504468C46203001780025D5
:1007A000012909D00126067041780027012905D0CA
:1007B000077002252846F8BD0220F8BD02214170CD
:1007C000A763206801684908490001606146204626
:1007D000FFF776FDE06A00282068016802D00E224B
:1007E000114306E00A2211430160206801680422D7
:1007F000914301602068016831430160DAE731B557
:1008000000F0BCF8009C0546601C00D0641C00F0A1
:10081000B5F8401BA042FAD338BD0000F8B500235C
:100820008DE001249C40A44622407DD04C68022CDF
:1008300001D0122C0CD1DC08A40027183C6A5D07FB
:10084000ED0E0F26AE40B4430E69AE4026433E6225
:1008500005685E000324B4400F79A543BF07BF0FAE
:10086000B7402F4307604D68012D05D0022D03D0FE
:10087000112D01D0122D0ED18568CF68A543B74048
:100880002F43876047686546AF430D79ED06ED0F4E
:100890009D403D434560C568A5438C68B4402C43EA
:1008A000C4604C68E40049D5284CA569012635434D
:1008B000A561A4699D0834400094254CAD002F1912
:1008C000BC689D072E0F0F25B540AC430925ED06EA
:1008D000A84201D100250FE01E4DA84201D10125FB
:1008E0000AE01D4DA84201D1022505E01B4DA8429A
:1008F00001D1032500E00525B5402543BD60184C16
:1009000025684E689543F60300D515432560656854
:100910004E689543B60300D515436560A5684E68DB
:100920009543F60202D500E008E01543A560E568AE
:100930004E689543B60200D51543E5605B1C0A6816
:100940001446DC4000D06CE7F8BD00000010024007
:10095000000001400004004800080048000C004866
:10096000000401400069084000D001207047002ABF
:1009700001D08161704781627047000001480068C2
:10098000704700000800002002480168491C01600F
:10099000704700000800002010B5064801681022CA
:1009A00011430160002000F007F800F017F8002064
:1009B00010BD00000020024010B5044600F03AF9D6
:1009C0007D21C900FFF78CFB00F030FB002221469F
:1009D000501E00F021F8002010BD000008B50848A6
:1009E0008169012211438161816911400091C269CD
:1009F00001040A43C261C0690840009008BD0000BC
:100A000000100240C106C90E01208840014908605B
:100A10007047000000E100E010B500F0C7FF10BD16
:100A2000F8B505460068354CC00352D5E06900268C
:100A3000C00007D4E16920040143E161E16901409C
:100A4000012600912E480168C90510D4016882155D
:100A500011430160FFF792FF074604E0FFF78EFFA6
:100A6000C01B642824D826480068C005F6D5206A33
:100A700003273F02384020D06968394081421CD0AA
:100A8000206A226AB843012109040A432262226AC9
:100A90008A4322622062C0070FD0FFF76FFF0090E9
:100AA00008E0FFF76BFF0099411A1648814201D90F
:100AB0000320F8BD206A8007F3D5206A6968B8432F
:100AC00008432062002E04D0E16901200007814321
:100AD000E1612878C00705D0206BA96880088000F4
:100AE000084320632878800605D5206B10218843B1
:100AF000E968084320630020F8BD000000100240B0
:100B00000070004088130000F8B5054644480E46C2
:100B10000068C007C00FB0420AD2414801684908C6
:100B20004900314301600068C007C00FB0425CD18A
:100B300028783C4C800705D56068F0218843A96877
:100B4000084360602878C0073FD06868012813D048
:100B50002168022813D08907002946DA61688908CC
:100B6000890001436160FFF709FF696807460129B1
:100B70000DD0022917D024E021688903ECE7890110
:100B8000EAE7FFF7FBFEC11B2748814217D86068E0
:100B90000007800F0128F4D117E0FFF7EFFEC11B1B
:100BA000214881420BD860680007800F0228F4D1E9
:100BB0000BE0FFF7E3FEC11B1B48814201D9032074
:100BC000F8BD60680007800FF3D115480168C907B8
:100BD000C90FB1420BD9016849084900314301608E
:100BE0000068C007C00FB04201D00120F8BD2878CE
:100BF000400706D56068072109028843E968084371
:100C0000606000F02DF86168084A0906090F515C20
:100C1000C840074908600020FFF7CEFE0020F8BD5D
:100C2000002002400010024088130000541F0008FA
:100C30000C00002001480068704700000C000020F4
:100C40000448054900684968044A4905490F515C50
:100C5000C84070470C00002000100240641F0008CC
:100C600010B512A30FCB88B06C460FC413A30FCBE3
:100C70000FC416494A680C20134603401448042B3D
:100C80000FD0082B0DD193021B0F6C46E45CC96A90
:100C900004AB0907090F595CD20304D5FFF720FA0A
:100CA000604308B010BD0B486043FAE70203040537
:100CB000060708090A0B0C0D0E0F101001020304A1
:100CC00005060708090A0B0C0D0E0F100010024054
:100CD00000127A0000093D00FEB504460078D04DB0
:100CE000C00747D068680007800F012807D06868F0
:100CF0000007800F022809D16868C00306D528685C
:100D0000800337D5606800287ED033E00120626818
:100D10000004012A11D08100002A01D0052A10D038
:100D20002A6882432A60286888432860606800280F
:100D300014D0FFF723FE06460CE029680143296022
:100D4000F4E72A680A432A60F7E7FFF717FE801BDB
:100D500064286FD828688003F7D50BE0FFF70EFEF4
:100D6000064604E0FFF70AFE801B6428F1D82868D5
:100D70008003F7D420780126800700283BDA6868D2
:100D80000007800F07D068680007800F022809D18C
:100D90006868C00306D42868800715D5E068012874
:100DA00032D111E0E0680028286815D0304328606F
:100DB000FFF7E4FD074604E0FFF7E0FDC01B022853
:100DC000C7D828688007F7D52868F82188432169A3
:100DD000C900084328600EE0400840002860FFF783
:100DE000CDFD074604E0FFF7C9FDC01B0228B0D8BF
:100DF00028688007F7D42078000724D5E069002808
:100E0000686A10D0304300E008E16862FFF7B6FD81
:100E1000074604E0FFF7B2FDC01B022899D8686AB4
:100E20008007F7D50FE0400840006862FFF7A6FD95
:100E3000074605E09DE0FFF7A1FDC01B022888D80A
:100E4000686A8007F7D4207804274007002860DA12
:100E500000200190E869C00008D4E969B8060143A0
:100E6000E961E96901400120009101906D48016844
:100E7000C90511D40168821511430160FFF77EFD99
:100E8000009005E0FFF77AFD0099401A642870D8B9
:100E900064480068C005F5D5A06801280AD000287C
:100EA00001D0052810D0286A400840002862286A2E
:100EB000B84301E0286A30432862A068002812D0B5
:100EC000FFF75CFD00900AE0286A38432862F1E7EA
:100ED000FFF754FD0099411A5348814249D8286AC6
:100EE0008007F5D50DE0FFF749FD009006E0FFF71C
:100EF00045FD0099411A4C4881423AD8286A80073A
:100F0000F5D40198002804D0E96901200007814345
:100F1000E9612078C00635D5606901280CD0401DF4
:100F2000686B23D038436863686B4008400068638F
:100F3000FFF724FD064622E0686B38436863686B60
:100F400030436863FFF71AFD064604E0FFF716FD1D
:100F5000801B02285BD8686B8007F7D5686BF82187
:100F60008843A169C900084368630BE0B84368631C
:100F7000F4E74CE0FFF702FD801B022847D8686BBE
:100F80008007F7D4206A002846D069680907890FCE
:100F9000022943D0012636060228286805D0B0432E
:100FA0002860FFF7EBFC044633E0B0432860FFF70E
:100FB000E5FC074604E0FFF7E1FCC01B022826D849
:100FC00028688001F7D4E86AE16A00090001084353
:100FD000E862616AA06A084369683D22120491438D
:100FE00008436860286830432860FFF7C7FC044660
:100FF00004E0FFF7C3FC001B022808D82868800122
:10100000F7D509E0FFF7BAFC001B022801D903203D
:10101000FEBD28688001F5D40020FEBD0120FEBD84
:10102000001002400070004088130000094910B50C
:10103000401E884201D9012010BD074C6061032188
:10104000081F00F0B3FC0020A061072020610020F1
:1010500010BD0000FFFFFF0000E000E070B5034698
:1010600020331A7F012A27D001241C7702225A77C5
:101070000326CA683602B2438E6800253243A602B0
:10108000B2434E6800683243E602B2430E68324310
:101090002603B2430E6932436603B2434E6989693F
:1010A0003243A603B2430A43E603B2430A4342640F
:1010B0005C771D77002070BD022070BD70B50246C0
:1010C0002032137F012B1BD0012313770224547786
:1010D000046865687026B5436560046865680E68D5
:1010E000354365600468A5688026B543A56000683F
:1010F000846849680C43846053770020107770BD82
:10110000022070BD70B5040005D025462035687FEB
:10111000002802D006E0012070BD0020287720467C
:1011200000F00AF802206877211D206800F0C0FC5A
:1011300001206877002070BD08B500680549884225
:1011400007D10548C26981150A43C261C0690840D8
:10115000009008BD0020004000100240022201461D
:1011600020314A77026813680120034313604877EF
:101170000020704770B586B0044614216846FEF71B
:10118000DEFF25681F4E0124092000211E4A640449
:101190000223C006B5420DD15569254355615269F8
:1011A00002912240059207221202019304930092B9
:1011B00003910FE0154EB54211D155692543556194
:1011C00052690291224005928022039101210193EC
:1011D000009204916946FFF721FB06B070BD0C48F0
:1011E0008542FAD154694001044354615269009325
:1011F00002400291039104910193059269460548CA
:10120000E9E70000002C014000100240000400400B
:101210000020004000040048F8B506460446203689
:10122000307F0D4601280DD00120307702207077E5
:101230000427002A08D0042A16D0082A2AD00C2A0B
:101240004DD137E00220F8BD206800F079FC20681D
:10125000816908221143816120688169B9438161F4
:10126000206881692A6912E0206800F0A5FC2068E6
:1012700082690121C9020A438261206881690122D1
:10128000920291438161206881692A6912021143A7
:10129000816124E0206800F0C9FC2068C26908214F
:1012A0000A43C2612068C169B943C1612068C1694C
:1012B0002A6912E0206800F0F5FC2068C16901226B
:1012C000D2021143C1612068C269012189028A43A7
:1012D000C2612068C1692A6912021143C1610120FB
:1012E000707700203077F8BD70B5040005D0254632
:1012F0002035687F002802D006E0012070BD002064
:101300002877204600F00AF802206877211D20681F
:1013100000F0CEFB01206877002070BD08B50B4AB5
:1013200001680B48914205D18269C1140A43826168
:10133000806907E0074A914206D1C26902210A4347
:10134000C261C0690840009008BD0000002C014047
:10135000001002400004004010B50446006801225D
:1013600000F0E2FB0A482168814205D00948814229
:1013700002D00948814204D1486C0122D2031043B3
:10138000486420680168012211430160002010BDFB
:10139000002C0140004401400048014070B50400A9
:1013A00006D02546403568780026002802D005E0A2
:1013B000012070BD2E70204600F01CF802206870DD
:1013C00020680168490849000160204600F09AFC45
:1013D0000128EED02068816808229143816020684E
:1013E000026801210A4302603046666469702E700B
:1013F00070BD000070B586B0044614216846FEF743
:101400009EFE1B49206888422FD11A48826901211B
:1014100089030A43826182690A4005924269C900D0
:101420000A43426142690A400592426949000A43FF
:10143000426140690225084005901020009001207B
:10144000049000240326092003960195029469461E
:10145000C006FFF7E3F9C0200090029469460396A6
:10146000019504940448FFF7D9F906B070BD000057
:10147000003801400010024000040048FEE7000070
:101480000FB410B59CB02E99204C0868E0624968F2
:101490002163626B616A8B18834202D382188A428D
:1014A00012D260623D221EA90CA8FEF72FFE28A8CA
:1014B000417D18A84173302210A96846FEF726FE28
:1014C0000CA80FC800F020F9A26A616B206B5318BA
:1014D000834202D34118914212D2A0623D221EA93A
:1014E0000CA8FEF713FE28A8417D18A841733022EE
:1014F00010A96846FEF70AFE0CA80FC800F024F9F0
:101500001CB010BC08BC04B018470000A8010020A3
:101510000FB400B50548417F20384068042901D840
:101520000199C86308BC04B018470000C801002036
:10153000124811490160292242610A218161142265
:10154000C2601E2242607922C261412202625022A0
:1015500002615A2282604163012200230146203148
:1015600082634B770A771946826B491C520082636B
:101570000A29F9DB70470000006CDC02A80100209A
:101580000A48417F002907D0012907D0022907D046
:10159000032907D0002106E0012104E0022102E036
:1015A000032100E00421417770470000C8010020BA
:1015B0000649087F032806D0042801D0022801D15B
:1015C0000320087770470420FBE70000C8010020D3
:1015D0000FB470B54A4C9EB0207F4A4E429D030026
:1015E00000F0E4FB060408133960048BFFF7A0FF4A
:1015F000012004E0FF20F530FFF701F902202077F9
:101600001EB070BC08BC04B018473D2222A90DA82A
:10161000FEF77CFD30A8417918A84174302211A949
:1016200068460C95FEF772FD0DAC0FCCFFF728FF56
:101630003D2232A90CA8FEF769FD40A8417918A8FF
:101640004173302210A96846FEF760FD0CAC0FCC48
:10165000FFF75EFFD4E73D2222A90DA8FEF756FD55
:1016600030A8417918A84174302211A968460C9518
:10167000FEF74CFD0DAC0FCCFFF702FF3D2232A967
:101680000CA8FEF743FD40A8417918A84173302209
:1016900010A96846FEF73AFD0CAC0FCCFFF738FFF7
:1016A000012225E03D2222A90DA8FEF72FFD30A83A
:1016B000417918A84174302211A968460C95FEF7AB
:1016C00025FD0DAC0FCCFFF7DBFE3D2232A90CA8A7
:1016D000FEF71CFD40A8417918A84173302210A9DB
:1016E0006846FEF713FD0CAC0FCCFFF711FF00228C
:1016F00008213046FFF73BF982E705207FE700002D
:10170000C8010020000400480FB470B50D4C666994
:10171000A569A16B701B82B2E06A5043FEF7E0FC42
:101720004019E060A84208D3B04206D861688142FF
:1017300003D004988163E068606070BC08BC04B0AA
:1017400018470000A80100200FB470B5104CE669DE
:10175000256AA16B701B82B2206B5043FEF7C0FC60
:1017600040192061A8420FD3B0420DD8A168814230
:101770000AD0642041432068FEF7B2FC401E049961
:1017800080B288622069A06070BC08BC04B01847B1
:10179000A80100203EB50021154800910191134A8F
:1017A0000291026041600124082204618260C160EC
:1017B0008161C1610422046242614162FF220463CB
:1017C000C23244638262C162FEF71CFE20030190B4
:1017D00007200290009469460548FEF787FD022025
:1017E000009069460248FEF781FD3EBD002401409D
:1017F0001000002070B586B014216846FEF79FFCEB
:1018000014484269012149040A43426142690A407D
:101810000592426949000A43426140690E4E084000
:101820000590002208213046FFF7A1F80920002486
:1018300001256A4631C26946C006FEF7EFFF08205F
:10184000009002946946019503943046FEF7E6FF46
:1018500006B070BD001002400004004810B588B00A
:101860001C216846FEF76BFC10480F4901600024FC
:10187000772184604160046164218461C160FFF765
:1018800041FC0A48FFF730FD60200090019402946B
:101890000022694604940548FFF7BEFC0348FFF7A1
:1018A00069FC08B010BD000000200040DC000020F2
:1018B00010B590B000240E941C2168460F94FEF7DA
:1018C0003EFC1C2107A8FEF73AFC1F481D49016099
:1018D0007721846041600461446164218461C16056
:1018E000FFF702FD0E940EA917480F94FFF7E6FBD1
:1018F00060200594019400900294039404940022C3
:10190000694606941048FFF787FC042269460E4892
:10191000FFF782FC082269460B48FFF77DFC012097
:101920000794400308940C9009940A940B9407A917
:101930000D940548FFF792FB0348FFF71BFC10B01E
:1019400010BD0000002C01405C00002010B58AB0E2
:10195000002407941C2168460894FEF7F0FB114808
:101960000F490160772184604160046164218461D2
:10197000C160FFF7B9FC079407A90A480894FFF76C
:101980009DFB602000900194029404226946049417
:101990000448FFF741FC0348FFF7ECFB0AB010BD19
:1019A000000400409C000020704700008307FF22D5
:1019B000DB0E9A408907090E994000280BDA0007D0
:1019C000000F0838830808489B001818C369934320
:1019D0000B43C3617047830804489B001B181868B9
:1019E000904308431860704700ED00E000E400E019
:1019F0007047704710B5FEF7C7FF10BD30B595B002
:101A000030216846FEF79BFB002401250F9412202D
:101A1000059500900D940E94102010941294139438
:101A20000C94039504900690119408946846FFF76F
:101A300053F907200C900D940E9400210F940CA8DC
:101A4000FFF762F810A810951294FEF7E9FF15B0A1
:101A500030BD000013480168012211430160416854
:101A6000114A114041600168104A1140016001684B
:101A7000012292049143016041683F221204914384
:101A80004160C16A09090901C162016BFF22143278
:101A900091430163416B4908490041630021816022
:101AA00070470000001002400CB8FF08FFFFF6FE70
:101AB00070B50268174B184E984201D0B04203D15E
:101AC0007024A2434C682243144C154D984208D010
:101AD000B04206D0134EB04203D0A04201D0A8427B
:101AE00004D103263602B243CE6832438026B24385
:101AF0004E69324302608A68C2620A688262984212
:101B000003D0A04201D0A84201D10969016301219B
:101B1000416170BD002C01400004004000440140C0
:101B2000004801400020004010B50123046A8B40AA
:101B30009C430462036A8A401343036210BD0000A1
:101B4000F0B5026A520852000262056A436882696F
:101B50007024A24392080C68920014430222954319
:101B60008A68134E2A43114DA84204D0B04202D0D5
:101B7000104FB84206D10827BA43CF681743042252
:101B800097433A46A84204D0B04202D0094DA84239
:101B900006D103252D02AB434D691D438B692B43B1
:101BA00043608461496841630262F0BD002C0140DA
:101BB000004401400048014070B5026A10239A4376
:101BC0000262046A4368826973252D02AA430D6884
:101BD0002D021543202294438A6812012243104C9F
:101BE000A04208D11446CA688026B4431201224399
:101BF0004024A24305E00B4CA04202D00A4CA04274
:101C000008D10324A402A3434C69A4001C438B699C
:101C10009B0023434360856149688163026270BD14
:101C2000002C0140004401400048014070B5026AA8
:101C3000FF2301339A430262046A4368C269702534
:101C4000AA4392080D689200154301225202944360
:101C50008A6812022243104CA04207D1C414A24346
:101C6000CC68240222430615B24305E00B4CA04287
:101C700002D00B4CA04208D103242403A3434C6997
:101C800024011C438B691B0123434360C5614968E0
:101C9000C163026270BD0000002C0140004401409D
:101CA0000048014030B5026A01231B039A430262D7
:101CB000056A4268C36973242402A3430C682402A2
:101CC0001C4301235B039D438B681B032B430A4D7D
:101CD000A84205D0094DA84202D0094DA84205D11D
:101CE0000125AD03AA434D69AD012A434260C46199
:101CF00049680164036230BD002C0140004401408A
:101D00000048014070B504462269A16801231143CF
:101D10006269DB031A430025236811431A682846C9
:101D20001F4E32400A431A60E369A1690122194338
:101D3000D2021143E368226A1A4323680A435968AE
:101D40003F263602B143114359601649096B890792
:101D5000890F0FD0012914D0022918D003290CD0E3
:101D60000125010909010007400F08432168C860E7
:101D7000284670BDFEF764FF05E061680A4A48081E
:101D800009E0FEF76DFF616840004A0803E0616802
:101D90000122480812048018FEF7A2F980B2E0E799
:101DA000F369FFFF001002400024F40030B47446D1
:101DB000641E2578641CAB4200D21D46635D5B0047
:101DC000E31830BC184702E008C8121F08C1002AF7
:101DD000FAD170477047002001E001C1121F002AAC
:101DE000FBD17047BEB0FEF7D7FDFFF707FEFFF748
:101DF00001FD53484169012211434161406910408E
:101E00000022009011460920FEF706FE0920FEF789
:101E1000F9FDFFF7BFFCFFF74BFDFFF797FDFFF75D
:101E20001DFD494847490160002484604B21C4607E
:101E30004902046141608461C4610C210462416112
:101E4000FFF7ACFAFFF774FB3F4804218038FFF737
:101E500083FA3D4800214038FFF77EFA3A48C038FF
:101E6000FFF77CF938480021C038FFF775FA36488B
:101E70000421C038FFF770FA33480821C038FFF753
:101E80006BFA31488038006884632F484038006816
:101E900044632D48C03801684C6301688C63006856
:101EA000C463022229492A48FEF7AAFB264E274F7F
:101EB000203E3546403D21A80924E4063D901420EB
:101EC000FEF79DFC20493D2240392DA8FEF71EF962
:101ED000717F38A841741C493D2280391DA8FEF746
:101EE00015F9697F28A8417440222DA90CA81C97D8
:101EF000FEF70CF9302268463D99FEF707F91DA858
:101F00000FC8FFF765FB01212046FEF72BFD0028D7
:101F100007D001212046FEF725FD0028F9D1FFF763
:101F200047FB08212046FEF71DFD0028C7D00821E9
:101F30002046FEF717FD0028F9D1FFF721FBBEE789
:101F400000100240003801401C0100200000002069
:101F50001000002000000000000000000102030447
:101F60000607080900000000010203048C1F000896
:101F70000000002010000000C61D00089C1F000883
:101F800010000020D8050000D61D00080000000049
:0C1F9000000000000000000000127A00B9
:04000005080000B13E
:00000001FF
